:020000040800F2
:1000000000540024AD020008DB370008613400080A
:10001000D9370008D909000819420008000000007B
:10002000000000000000000000000000213A00086D
:10003000DB09000800000000DD370008233A000853
:10004000CB020008CB020008CB020008CB0200085C
:10005000CB020008CB020008CB020008CB0200084C
:10006000CB020008CB020008CB020008CB0200083C
:10007000CB020008CB020008CB020008CB0200082C
:10008000CB020008CB020008CB020008CB0200081C
:10009000CB020008CB020008CB020008CB0200080C
:1000A000CB020008CB020008CB020008CB020008FC
:1000B000CB020008CB020008CB020008CB020008EC
:1000C000CB020008CB020008CB020008CB020008DC
:1000D000CB020008CB020008CB020008CB020008CC
:1000E000CB020008CB02000800000000CB02000891
:1000F000CB020008CB020008CB020008CB020008AC
:10010000CB020008CB020008CB020008CB0200089B
:10011000CB020008CB020008CB020008CB0200088B
:10012000CB020008CB020008CB020008CB0200087B
:10013000CB020008CB020008CB020008CB0200086B
:1001400000000000000000000000000000000000AF
:10015000CB020008CB020008CB020008CB0200084B
:10016000CB020008CB020008CB020008CB0200083B
:10017000CB020008CB020008CB020008CB0200082B
:10018000CB020008CB020008CB020008CB0200081B
:10019000CB020008CB020008CB020008CB0200080B
:1001A000CB020008CB020008CB020008CB020008FB
:1001B000CB020008CB020008CB020008CB020008EB
:1001C000CB020008CB020008CB020008CB020008DB
:1001D000CB020008CB020008CB020008CB020008CB
:1001E000CB020008CB020008CB020008CB020008BB
:1001F000CB020008CB020008CB020008CB020008AB
:10020000CB020008CB020008CB020008CB0200089A
:10021000CB020008CB020008CB020008CB0200088A
:10022000CB020008CB020008CB020008000000004F
:10023000CB020008CB02000800000000CB0200083F
:10024000CB020008CB020008CB020008CB0200085A
:10025000CB020008CB020008CB020008CB0200084A
:10026000CB020008CB020008CB020008CB0200083A
:10027000CB020008CB020008CB02000800000000FF
:10028000CB020008CB020008CB02000800000000EF
:1002900000000000CB020008DFF80CD000F06CFA80
:1002A0000048004781650008005400240748804743
:1002B0000748804707480047FEE7FEE7FEE7FEE7FE
:1002C000FEE7FEE7FEE7FEE7FEE7FEE7E1090008DE
:1002D000D53A0008990200082DE9F05F0546002094
:1002E00092469B4688460646814640241BE02846A7
:1002F00041464746224600F076F853465A46C01A11
:10030000914110D311461846224600F05DF82D1A8F
:1003100067EB01084F4622460120002100F054F807
:1003200017EB00094E41201EA4F10104DFDC484612
:1003300031462A464346BDE8F09F40EA01039B0749
:1003400003D009E008C9121F08C0042AFAD203E04A
:1003500011F8013B00F8013B521EF9D27047D2B2AE
:1003600001E000F8012B491EFBD270470022F6E79E
:1003700010B513460A4604461946FFF7F0FF20461B
:1003800010BD30B504460020034600E05B1C9342DC
:1003900003D2E05CCD5C401BF8D030BD30B50B46DD
:1003A000014600202022012409E021FA02F59D42A5
:1003B00005D303FA02F5491B04FA02F52844151E79
:1003C000A2F10102F1DC30BD202A04DB203A00FA60
:1003D00002F1002070479140C2F1200320FA03F39C
:1003E000194390407047202A04DB203A21FA02F09A
:1003F0000021704721FA02F3D040C2F1200291405F
:100400000843194670472DE9FE4F804681EA0300F4
:10041000C00F0C46009021F0004123F00045B8EBDE
:100420000200A94105D24046214690461C460B4693
:10043000024623F00040104347D0270DC7F30A00BF
:10044000C3F30A510290401A019040286BDAC3F3BB
:10045000130040F4801B0098924620B10023D2EB99
:10046000030A63EB0B0B01985946C0F1400250465A
:10047000FFF7AAFF06460D4650465946019A00F07E
:100480008DF910EB08006141002487EA115284EADB
:10049000E7731A4340D0009A62B3019A012A4FEAE7
:1004A000075215DC001B61EB02014FF0004202EA2B
:1004B0000752CDE90042001C41F5801132462B461F
:1004C00000F08DF903B0BDE8F08F40462146F9E712
:1004D000001B61EB0201001C41F5801300185B4119
:1004E0002018A2F5001747EB030140EAD570B619B2
:1004F0006D4111E06D084FEA360645EAC0754FEAD6
:100500000752001B61EB0201001C41F580114908F4
:100510004FEA30000019514132462B4603B0BDE886
:10052000F04F00F04DB90098012240000023D0EBBD
:10053000020263EBE073009821464FEAE074B8EBE7
:10054000000061EB0401E9E783F000435BE781F021
:10055000004158E72DE9FE4F81EA030404F000440E
:1005600021F0004100944FF0000B23F0004350EACB
:1005700001045ED052EA03045BD0C3F30A54C1F312
:100580000A552C44A4F2F3340194A0FB0254C1F3A5
:10059000130141F48011C3F3130343F4801301FBEF
:1005A000024400FB034E840A970A44EA815447EA56
:1005B0008357A4FB076802958D0A05FB07854FEA60
:1005C000932C04FB0C542705029D4FEA065847EA7A
:1005D0001637B5EB08056EEB070C870E920E47EA4F
:1005E000811742EA8312A7FB0201B6EB0B0164EB11
:1005F00000042B0D43EA0C335E1844EB1C50DA4622
:100600005146E7FB0201C5F313044FEA0B3343EAFB
:1006100014534FEA0432019C43EA0603A4F10C048C
:100620000294009CCDE900B400F0D9F803B0BDE815
:10063000F08F00200146F9E72DE9F04D81EA03042F
:1006400004F0004B21F0004514464FF0000A23F05F
:10065000004150EA050220D054EA01021DD0C5F342
:100660000A570246C5F31303C1F31300C1F30A5638
:1006700040F4801543F48013A7EB0608101BD64600
:1006800008F2FD3873EB050002D308F1010801E020
:1006900092185B41B8F1000F03DA00200146BDE873
:1006A000F08D00204FF48011064684460EE0171BA3
:1006B00073EB050705D3121B63EB050306434CEAF6
:1006C000010C49084FEA300092185B4150EA0107DB
:1006D000EDD152EA030012D082EA040083EA050158
:1006E000084305D0101BAB4106D20122002306E0CF
:1006F00000224FF0004302E06FF0010253101AEBAA
:1007000006004CEB085110EB0A0041EB0B01BDE871
:10071000F04D00F055B8C1F30A52C1F3130140F295
:10072000FF3341F480119A4202DA002001467047FB
:1007300040F233439A42A2F2334202DC5242FFF7C4
:1007400052BEFFF741BE000030B5041E71F1000437
:1007500004DB4FF00044404264EB0101141E73F1CE
:10076000000405DB1C464FF00043524263EB0403D8
:10077000994208BF904230BD064C074D06E0E06844
:1007800040F0010394E8070098471034AC42F6D3D8
:10079000FFF786FD783C0108983C0108202A06DB1B
:1007A000CB17203A41FA02F043EAE07306E041FA3F
:1007B00002F3D040C2F1200291400843194670472D
:1007C00010B5141E73F1000408DA401C41F1000159
:1007D00092185B411A4301D120F0010010BD2DE9B0
:1007E000F04D92469B4611B1B1FA81F202E0B0FAA7
:1007F00080F220329046FFF7E7FD04460F4640EABC
:100800000A0041EA0B0153465A46084313D01146E9
:1008100053EA010019D0C8F140025046FFF7E3FD4A
:1008200005460E46504659464246FFF7CDFD084361
:1008300005D0012004E020463946BDE8F08D0020B7
:10084000054346EAE0762C4337430A986305E40AF9
:10085000A0EB08000022FD0A44EA47540A3002D502
:1008600000200146E9E7010510196941DDE9084565
:1008700000196941BDE8F04DA2E770B58C1810F879
:10088000015B15F0070301D110F8013B2A1106D1D5
:1008900010F8012B03E010F8016B01F8016B5B1EEF
:1008A000F9D12B0705D40023521E0DD401F8013BCA
:1008B000FAE710F8013BCB1A921C03E013F8015B36
:1008C00001F8015B521EF9D5A142D8D3002070BDBA
:1008D00070B53A4905460068884202D0384A9042CD
:1008E00002D1D1F8080302E03648D0F8080310F42A
:1008F000403F11D002F0B6F804466868B0F5803F7A
:1009000006D0B0F5003F03D0B0F5403F27D101E05D
:10091000000C18E0A40822E000214FF4002001F0B0
:1009200039F9044668688103890B18D181140C29B0
:1009300015D2DFE801F0140606060606060B0D0FB9
:100940001113800C4000B4FBF0F408E0240906E029
:10095000640904E0A40902E0E40900E0240A00F0CC
:1009600005FE41F20301884208D8174884422868EE
:10097000816813D821F48071816070BD13496008CB
:10098000884204D82868816821F44071F4E710494E
:10099000884206D82868816821F4407141F480714A
:1009A000EAE70C4988422868816804D821F440713C
:1009B00041F40071E0E741F44071DDE700200240BE
:1009C0000021024000600258002D3101105E5F00DE
:1009D00020BCBE0040787D01FEE7704772B6FEE79E
:1009E000054805490839026842F0020202600868B9
:1009F0008004FCD5704700000C4802582DE9F047F0
:100A00000F4690F850109AB0044601294FF00009A3
:100A100015D00026DFF8F880012084F850001596E4
:100A20001696216841450ED13A4D0095284602F0B0
:100A300020FD8246206802F01CFD60B10EE002201D
:100A40001AB0BDE8F087606D84F8506040F0200077
:100A500060650120F4E7BAF1000F09D0616D4FF035
:100A6000010941F020006065484684F85060E7E7DE
:100A700020684146884201D0A84201D1264800E0C2
:100A8000264840F61F72D7F800C0254BBCF1000F76
:100A900023D0D0F808C0D7F804802CF4404C4CEA9E
:100AA000080CC0F808C0D4F800C08C4501D0AC4593
:100AB00007D18968AB6801F0010103F00103194314
:100AC00002E0996801F001010029CDD1BD683968C3
:100AD000836829439343194317E0876827F4404705
:100AE000876027688F4201D0AF4207D18968AB6821
:100AF00001F0010103F00103194302E0996801F0DC
:100B000001010029B0D1816891438160ACE7000008
:100B100000200240002102400023024000630258EE
:100B2000006002582DE9F84F0446EB4E0020DFF834
:100B3000ACB30090002794F850000D46DFF8A0A356
:100B4000012808D04FF0010984F85090206802F085
:100B50008CFC18B171E10220BDE8F88F28680028EC
:100B60000EDB21680303CA6928D090FAA0F0B0FA1E
:100B700080F000BF00F01F0309FA03F00243CA61CE
:100B8000D5E900124FF00C0C20681F23C1F38461DB
:100B90000CEA921C02F01F02604493409140026BE9
:100BA0009A430A430263206802F05FFC8046206893
:100BB00002F057FC58EA000003D08DE0C0F38460D7
:100BC000D8E72A68042320684FF0070CA96803EAD5
:100BD000D25318444369C2F304520CFA02FC914008
:100BE00023EA0C030B434361BE490968B9EB117F4B
:100BF00006D121686869C968C1F38201490008E02B
:100C00002068C168C906C1686869F5D501F010019E
:100C100049088840296904292ED023682A6803EBF3
:100C2000810102F0F8420B6E024303F000401043D2
:100C30000866697E22682869012917D05FF00001E3
:100C400002EB8000026E22F000420A430266297E17
:100C500020682A6901290CD00021036902F01F02D3
:100C6000914023F4F0420A43026135E04FF0004125
:100C7000E6E74FF40061F0E720682978026E02F0A1
:100C8000F842B2EB816F03D1016E21F000410166A1
:100C900020682978426E02F0F842B2EB816F03D1EE
:100CA000416E21F00041416620682978826E02F091
:100CB000F842B2EB816F03D1816E21F00041816671
:100CC00020682978C26E02F0F842B2EB816F03D13E
:100CD000C16E21F00041C1662068816811F0010FEA
:100CE00072D150F8C03F2A7BDFF8FCC1296802F0BE
:100CF00018022CFA02FCC1F3130823EA08030CEAD9
:100D0000010C43EA0C030360E96859456CD177484C
:100D10002268DFF8DCC1DFF8DCB18242DFF8D8E11D
:100D20007648774BDFF8DC8122D12968614524D0F1
:100D3000B1EB4C0C38D0A1F1496CBCF1080C35D0AA
:100D4000A1F1865CBCF1100C32D0DFF8BCC161456A
:100D500028D071453AD0814230D0994232D06B4888
:100D6000814201D16A4831E041452ED169482DE0E8
:100D7000B2422AD12968614501D1012026E0A1F1C2
:100D8000066CBCF1040C0FD0A1F1496CBCF1080C4D
:100D90000CD0A1F1865CBCF1100C09D0DFF868C161
:100DA000614507D15C4811E058460FE05B480DE013
:100DB0005B480BE0714509D0814201D1184605E03E
:100DC0009942D1D1574801E03CE00020D1690303AA
:100DD0001AD090FAA0F0B0FA80F000BF00F01F0324
:100DE00009FA03F00143D161D5F800C0BCF1000F4E
:100DF00028DA3E4B20684C49DFF83091984201D008
:100E0000B04203D10A4602E0800EE7E74A46926804
:100E1000984202F0E07201D0B04209D19D68D6F844
:100E2000088005F0010508F0010845EA080503E01F
:100E3000DAF8085005F001054DB1606D012740F06A
:100E400020006065002084F85000384684E6384D64
:100E5000AC451CD115021AD45045F3D1984202D0AA
:100E6000B04200D049468B6842F4000023F0E072A3
:100E700002438A6030492F480968B1FBF0F0400016
:100E8000801C00E0401E00900028FBD1DAE72B4DCB
:100E9000AC450CD1D5010AD45045D3D1984202D0EB
:100EA000B04200D049468B6842F080700EE0244D7D
:100EB000AC45C7D15502C5D45045C3D1984202D0E4
:100EC000B04200D049468B6842F4800023F0E072C3
:100ED00002438A60B6E70000002102400000FF479D
:100EE000006002580010005CFFFF0F00002002406D
:100EF00002003004400020190004002A0008302EAF
:100F0000001060320000844B2000F01400002143E8
:100F1000000052470000B84F0002B0258000501D6D
:100F20000001802100209036002302400063025817
:100F3000000084CB400D0300DC050024000052C7F4
:100F40000000B8CFF8B54FF0000604003546009613
:100F500002D0606D10B107E00120F8BD204600F01E
:100F600005F9A66584F8506020688168C1F3407176
:100F700019B18168704A1140816020688168C1F3AD
:100F8000007181B981686D4A114041F080518160E2
:100F90006C496B480968B1FBF0F0401C00E0401E52
:100FA00000900028FBD120688168C1F3007141B92D
:100FB000616D012541F010016165A16D41F00101F4
:100FC000A16502F052FA616DC90600D420B1606DCE
:100FD000012540F0100093E0606D20F4807040F037
:100FE000020060652068816811F0010F1FD1564A28
:100FF000564B904201D0984207D191689E6801F00B
:10100000010106F00106314303E05149896801F00E
:10101000010161B9904201D0984201D14D4800E0F0
:101020004D488268616822F47C120A43826000F0B5
:101030009DFA41F20301884202D9A06810280CD021
:10104000617D227FA368206B490341EA0241184376
:101050000843217F01290CD010E0607D227F216BA5
:10106000400340EA024241F01000104340F00C00FF
:10107000EFE7218C394A02EB41410843616A29B10B
:10108000A26A01F47871014342EA01002168344BFD
:10109000CA681A400243CA60206802F0E6F90646B0
:1010A000206802F0DEF930431DD1216844F20303C9
:1010B000267DE26AC86842EA863298431043C860D7
:1010C00094F8380001281ED02068016921F0010140
:1010D00001612068626B016921F070411143016177
:1010E0002046FFF7F5FBE068012820681CD0016B63
:1010F00021F00F010163606D20F0020040F001005B
:1011000060652846F8BD2068A28F164FD4E9101CF0
:10111000154E07EB0247A36C026941EA0C013B4301
:10112000324019431143D3E7A269016B521E21F0EB
:101130000F011143DEE70000C0FFFF5FC0FFFF7F2C
:10114000400D0300DC050024002002400021024085
:101150000060025800230240006302580000FEFFB6
:1011600003C0F0FF0100FFFF1EF800FCF0B5B7B0B0
:101170000446142130A8FFF7F9F8C0216846FFF7AC
:10118000F5F81F492068884238D100220220144611
:1011900001230A934FF400211425CDE90012CDE973
:1011A0000B5011920DAA0526C10329914FF44067F7
:1011B0004FF4007C82E8C110684600F04FFE08B191
:1011C000FFF70CFC0F48016841F020010160006846
:1011D00000F0200035900B480830016841F0010113
:1011E0000160006830AA032100F001003590202042
:1011F00082E81300044830A900F094F837B0F0BD3D
:1012000000200240D844025800000258F0B50446BD
:10121000C8074FF0000010D01E23012603F01F075F
:1012200006FA07F50D4201D15B1EF7D27AB1082A02
:101230000BD0102A06D0182A01D00120F0BD072BB0
:10124000FBD204E0082BF8D201E0102BF5D2236882
:10125000596121688B6823F0180313438B60F0BD3C
:1012600010B5040010D0607F20B900202077204600
:1012700000F032F821790220607739B1D4E9021206
:101280002046FFF7C3FF48B1012010BD2168114877
:1012900048612068816821F0180181606079A0B1FF
:1012A000216820690861012220686369816821F052
:1012B0006001194381602068A369816821F0800181
:1012C000194381606277002010BD21684FF0FF3024
:1012D000E8E70000B71DC10408B500680649884268
:1012E00008D10648016841F400210160006800F45B
:1012F0000020009008BD0000004C0258E044025855
:1013000070B5044600F038F90546601C02D0044868
:101310000078044400F030F9401BA042FAD370BDBD
:10132000D00500242DE9F84F03247D4D00234FF014
:1013300001094FF0B04B4FF00F0AE9E009FA03F74B
:101340003A4076D00E7906F00306012E01D0022E27
:1013500018D1D0F808C04FEA430ECE6804FA0EF850
:101360002CEA080C06FA0EF646EA0C068660D0F85F
:1013700004C00E792CEA070CC6F300169E4046EA1C
:101380000C0646600E79F643B6070BD0C6684FEAE6
:1013900043088F6804FA08FC26EA0C0607FA08F7E7
:1013A0003743C7600E7906F00306022E12D1DE081D
:1013B0000F694FEA437C00EB8606B646366A4FEA71
:1013C000DC6C0AFA0CF807FA0CF726EA0806374331
:1013D000CEF820700F7906684FEA430807F003073C
:1013E00004FA08FC07FA08F726EA0C0637430760F8
:1013F0004E6816F4403F1CD04A4E376847F002074B
:10140000376036689F0706F00206009623F0030651
:1014100006F1B046B6463F0FD6F80864DFF80881FB
:101420000AFA07FC404526EA0C0603D14FF0000CEF
:1014300041E06CE0DFF8F4C0604502D14FF0010CF0
:1014400039E0DFF8ECC0604502D14FF0020C32E029
:10145000DFF8E0C0604502D14FF0030C2BE0DFF86D
:10146000D8C0604502D14FF0040C24E0DFF8CCC0B6
:10147000604502D14FF0050C1DE0DFF8C4C06045A7
:1014800002D14FF0060C16E0DFF8B8C0604502D17B
:101490004FF0070C0FE0DFF8B0C0604502D14FF00D
:1014A000080C08E0DFF8A4C0604502D14FF0090C39
:1014B00001E04FF00A0C0CFA07FC4CEA060CCEF8DF
:1014C00008C44F68DBF80060FF0226EA020600D578
:1014D00016435F46CBF80060D1F804C0DBF8046027
:1014E0005FEA8C2C26EA020600D516437E606E6801
:1014F0004F6826EA0206BF0300D516436E602E68C9
:101500004F6826EA0206FF0300D516432E605B1CD7
:101510000A6832FA03F67FF411AFBDE8F88F0000D5
:1015200080000058F4440258000002580004025899
:1015300000080258000C025800100258001402580B
:1015400000180258001C02580020025800240258BB
:10155000426921EA02030A4043EA0241816170477D
:101560000AB1816170470904FBE700000148006887
:10157000000C70470010005C014880687047000054
:10158000D0050024024881680278114481607047C8
:10159000D0050024032010B500F0C6F801F0A8FA29
:1015A0000F4A104914681368C4F3032203F00F03B1
:1015B0008A5CC95C02F01F0201F01F01D0400A4A98
:1015C00020FA01F11160094908600F2000F010F8BD
:1015D00008B1012010BD00F079F8002010BD000016
:1015E00018440258D03B0108E0050024DC05002423
:1015F00070B50D4D04462878A0B14FF47A71B1FB57
:10160000F0F00A490968B1FBF0F001F0CEFD48B9ED
:10161000102C07D200222146501E00F065F8002051
:101620006C6070BD012070BDD0050024DC05002475
:10163000154BF0B5083B427813491A600B680A1F36
:1016400023F001030B6043681360057BC67A827A3E
:10165000437B2D07847B45EA0665C77B90F809C06C
:10166000067A90F800E045EAC24040EA834040EA4A
:10167000444040EA074040EA0C2040EA460040EA85
:101680000E000860F0BD0000A0ED00E0BFF35F8F2A
:10169000044800210368034A23F480330360703256
:1016A0001160704724ED00E0074A40F00100064950
:1016B00070321060086840F480300860BFF34F8FCC
:1016C000BFF36F8F7047000024ED00E0054808B5B8
:1016D000016841F002010160006800F00200009022
:1016E00008BD0000F44402580E4BF0B41B680D46D0
:1016F000C3F30223C3F10706042E00D90426191DE3
:10170000072901D2002300E0DB1E012404FA06F1C0
:101710009C40491E2940641E994014402143F0BC5E
:1017200002F09FBD0CED00E0064900F0070210B585
:101730004FF6FF040868044B204040EA022018439B
:10174000086010BD0CED00E00000FA05134970B50B
:101750000A68D243520705D5096801F007018142A2
:1017600013D118E00A6822F0070202430A60FFF76B
:1017700003FF0A4D4FF47A760446083D07E000BFA8
:10178000FFF7FAFE001BB04201D9012070BD2868A6
:10179000C0438004F4D4002070BD00000C480258FF
:1017A00010B501F05FF905490968054AC1F3021156
:1017B000515C01F01F01C84010BD000020440258D8
:1017C000D03B01084A4930B5494C0B1D0A680C341E
:1017D00009681D68246802F0030305F00102C1F3E3
:1017E0000511C4F3CC04002914FB02F200EE102A08
:1017F000F8EE400A76D0414A9FED3E1ADFED3E1AE0
:10180000B7EE000A23B1012B5AD0022B18D15CE0AD
:10181000374C283C23689B0612D5394B246801EECF
:10182000901A1168C4F3C104F8EE612AE34001EE96
:10183000903AC1F30801F8EE611A81EEA22A07E09E
:1018400002EE101A1168F8EE422A81EEA22A45E053
:1018500001EE901A1168F8EE611A40EE811A71EEED
:10186000800A62EE200AC1F3462101EE101AB8EE9A
:10187000411A31EE001AC0EE811ABCEEE11A80ED79
:10188000001A1168C1F3064101EE101AB8EE411AB0
:1018900031EE001AC0EE811ABCEEE11A80ED011A99
:1018A0001168C1F3066101EE101AB8EE411A31EE6B
:1018B000000A80EE801ABCEEC10A80ED020A30BD3B
:1018C00001EE901ADFED0F2A03E001EE901ADFED32
:1018D0000E2A1168F8EE611A82EEA12AC1F30801FE
:1018E000B6E7FFE7002101604160816030BD000084
:1018F00028440258000000390024744C3044025837
:101900000090D0030024744A0024F44A494930B5B9
:10191000484C0B1D0A68143409681D68246802F0DD
:101920000303C5F30012C1F30531C4F3CC0400294D
:1019300014FB02F200EE102AF8EE400A75D03F4A7E
:101940009FED3D1AB7EE000A6BB1DFED3D1A012B9A
:1019500001D0022B64D002EE101A1168F8EE422A70
:1019600081EEA22A21E0334C283C23689B0612D545
:10197000344B246801EE901A1168C4F3C104F8EEE8
:10198000612AE34001EE903AC1F30801F8EE611AD2
:1019900081EEA22A0BE001EE901ADFED2B2A00BFA8
:1019A000F8EE611A116882EEA12AC1F3080101EE76
:1019B000901A1168F8EE611A40EE811A71EE800AF1
:1019C00062EE200AC1F3462101EE101AB8EE411A68
:1019D00031EE001AC0EE811ABCEEE11A80ED001A59
:1019E0001168C1F3064101EE101AB8EE411A31EE4A
:1019F000001AC0EE811ABCEEE11A80ED011A1168DE
:101A0000C1F3066101EE101AB8EE411A31EE000A78
:101A100080EE801ABCEEC10A80ED020A30BD04E0FF
:101A200001EE901ADFED092ABAE70021016041605A
:101A30008160F3E728440258000000393844025816
:101A40000024744A0090D0030024744C0024F44A0B
:101A5000494930B5484C0B1D0A681C3409681D689B
:101A6000246802F00303C5F30022C1F30551C4F357
:101A7000CC04002914FB02F200EE102AF8EE400A12
:101A800075D03F4A9FED3D1AB7EE000A6BB1DFED0E
:101A90003D1A012B01D0022B64D002EE101A1168FE
:101AA000F8EE422A81EEA22A21E0334C283C23683A
:101AB0009B0612D5344B246801EE901A1168C4F3CA
:101AC000C104F8EE612AE34001EE903AC1F3080147
:101AD000F8EE611A81EEA22A0BE001EE901ADFED1A
:101AE0002B2A00BFF8EE611A116882EEA12AC1F319
:101AF000080101EE901A1168F8EE611A40EE811AA1
:101B000071EE800A62EE200AC1F3462101EE101A3E
:101B1000B8EE411A31EE001AC0EE811ABCEEE11A9D
:101B200080ED001A1168C1F3064101EE101AB8EEFB
:101B3000411A31EE001AC0EE811ABCEEE11A80EDB6
:101B4000011A1168C1F3066101EE101AB8EE411ACC
:101B500031EE000A80EE801ABCEEC10A80ED020A66
:101B600030BD04E001EE901ADFED092ABAE700214A
:101B7000016041608160F3E72844025800000039A9
:101B8000404402580024744A0090D0030024744C4E
:101B90000024F44A2DE9F04FAD4A0546DFF8ACA227
:101BA00080F48070DFF8AC9289B01311AA4C08431E
:101BB000AAF104064FF0805C4FF000584FEAE200B3
:101BC0002CD085F400770F4357D0DFF880B285F42E
:101BD00080670F430BF1080B61D085F400670F435A
:101BE00074D085F480570F436ED085F400570F43AF
:101BF0004FF480394FF4003E67D085F400270F433F
:101C000071D085F480370F436ED085F480460E4343
:101C10006BD085F400420A4368D02AE0DAF800105D
:101C200001F00701052924D2DFE801F075BC7D250C
:101C3000B10006A8FFF7C6FD079809B0BDE8F08F10
:101C40006846FFF763FE0098F7E703A8FFF700FF79
:101C50000398F2E72068C0F3C10022FA00F0ECE735
:101C60002268D20571D561456FD11846E5E7414537
:101C7000E3D00020E1E74846DFE7DAF8001001F49E
:101C8000E07180294FD004DC002944D04029F0D1F4
:101C900088E0C029EFD0B1F5807FEAD177E0DBF8AA
:101CA000001001F46001B1F5800F3CD004DC91B369
:101CB000B1F5001FDDD175E0B1F5C00FDBD0B1F596
:101CC000000FD6D163E001E018E030E0DBF800104F
:101CD00001F0E061B1F1007F25D008DCD9B1B1F1AC
:101CE000807FC6D15EE049E06CE079E09CE0B1F134
:101CF000407FC0D0B1F1806FBBD148E0DAF800106E
:101D000001F4E041B1F5005F0DD005DC19B1B1F58A
:101D1000805FAED146E094E0B1F5405FABD0B1F565
:101D2000804FA6D133E020688000A2D58DE7DAF895
:101D3000001001F4E021B1F5403F6CD006DC61B148
:101D400049457AD0714594D157E037E0B1F5802FFD
:101D500065D0B1F5A02F8CD10CE000F0A5FE6CE7AA
:101D60006846FFF7D3FD019867E703A8FFF770FE09
:101D7000049862E721688903F1D47AE7DBF8001060
:101D800011F440310ED0494510D07145F5D131687C
:101D9000256801F040516D077FF562AF00297FF49F
:101DA0005FAF57E720680001E7D549E7206880006A
:101DB000E3D503A8FFF74CFE05983EE7226892039F
:101DC000DBD554E7306810F480303AD04845D4D1A0
:101DD00020680001D1D56846FFF798FD02982CE7EE
:101DE000DBF8001001F0E041B1F1405F13D008DCF6
:101DF00071B1614521D04145BFD120688000B4D484
:101E000037E7B1F1804F0AD0B1F1A04FB2D030E73F
:101E1000FFF7C6FC11E720684007AED51AE7206837
:101E2000C005AAD521E708E0DAF8001011F040510A
:101E3000A0D0614505D041459FD1206800018FD4D5
:101E400017E72068800198D5F3E600005044025857
:101E50000090D0030080BB00004402582DE9FE4FE3
:101E60000546DFF8E48350F8081B0024F64FC94309
:101E7000019005F12800264608F124080090080189
:101E80001DD4A86E50B1B0F5801F0CD0B0F5001F66
:101E90000ED0B0F5401F1ED001240FE0386840F48A
:101EA0000030386017E00198022101F099FC03E04E
:101EB0000098022101F024FD04000CD02646288859
:101EC000C043C00523D4A86D05281ED2DFE800F06A
:101ED0000C11161B1B00AA6ED8F8001021F440113B
:101EE0001143C8F80010EAE7386840F40030386061
:101EF00009E00198002101F073FC03E00098002143
:101F000001F0FEFC044674B100E001242646288856
:101F1000C043800528D4E86D80281ED00CDC90B129
:101F200040280ED114E0AA6DD8F8001021F0070166
:101F30001143C8F80010EAE7C02813D0B0F5807F3D
:101F400010D001240FE0386840F40030386009E018
:101F50000198002101F044FC03E00098002101F009
:101F6000CFFC04469CB126462888DFF8DC92C043AB
:101F700009F12C0940052CD4D5F8A800B0F5800F44
:101F800020D00DDCA0B1B0F5001F0FD115E0EA6D37
:101F9000D8F8001021F4E0711143C8F80010E3E70D
:101FA000B0F5C00F13D0B0F5000F10D001240FE032
:101FB000386840F40030386009E00198002101F0F1
:101FC0000FFC03E00098002101F09AFC04467CB16C
:101FD00026462888C04300052DD4D5F8AC00B0F1C2
:101FE000007F21D00EDCA8B1B0F1807F10D116E0C7
:101FF000D5F8A820D9F8001021F460011143C9F8E0
:102000000010E6E7B0F1407F13D0B0F1806F10D040
:1020100001240FE0386840F40030386009E001988E
:10202000002101F0DDFB03E00098002101F068FCD5
:10203000044674B126462868C04380011FD4E86C6A
:10204000D8B110280FD0202812D0302815D0012464
:1020500014E0D5F8AC20D9F8001021F0E06111436C
:10206000C9F80010E7E7386840F40030386004E051
:102070000198022101F0B4FB044674B12646288879
:10208000C043C0042BD4286EB0F5005F20D00DDC17
:10209000A0B1B0F5805F0FD115E06B48EA6C20303D
:1020A000016821F0300111430160E8E7B0F5405FBD
:1020B00013D0B0F5804F10D001240FE0386840F401
:1020C0000030386009E00198002101F089FB03E04D
:1020D0000098002101F014FC04468CB126462888A3
:1020E000C043800429D4686EB0F5403F23D010DC93
:1020F00008B3B0F5803F14D0B0F5003F0FD115E024
:102100002A6ED8F8001021F4E0411143C8F80010FD
:10211000E5E7B0F5802F0ED0B0F5A02F0BD001244D
:102120000AE00198012101F05BFB03E00098012126
:1021300001F0E6FB044694B126462888C0434004DB
:102140002AD4D5F8B000B0F1405F23D010DC08B33A
:10215000B0F1805F14D0B0F1005F0FD115E06A6E6E
:10216000D8F8001021F4E0211143C8F80010E4E78A
:10217000B0F1804F0ED0B0F1A04F0BD001240AE097
:102180000198012101F02CFB03E00098012101F0EE
:10219000B7FB044674B126462888C04300041FD408
:1021A000286FD8B1B0F1805F0ED0B0F1005F10D0D1
:1021B000012414E0D5F8B020D9F8001021F0E04156
:1021C0001143C9F80010E7E7386840F40030386080
:1021D00004E00198012101F003FB044674B1264696
:1021E0002868C043C0011ED4A86CD0B101280ED00D
:1021F000022811D0032814D0012413E02A6FD8F844
:10220000001021F040511143C8F80010E8E7386889
:1022100040F40030386004E00198022101F0E0FA57
:102220000446ACB126462868DFF81CB0C043ABF1C9
:102230001C0B400252D40548016841F480710160D2
:10224000FFF79AF9824611E02C44025800480258E0
:10225000FA48AA6C016821F0030111430160E2E72A
:10226000FFF78AF9A0EB0A00642835D8F448006823
:10227000C005F5D58CBBDFF8C4A3B5F8B4100AF1DE
:10228000240ADAF8000001F4407100F4407088423A
:1022900011D0DAF80010DAF8002021F4407142F48D
:1022A0008032CAF80020DAF8002022F48032CAF81E
:1022B0000020CAF80010D5F8B400B0F5807F1AD11C
:1022C000FFF75AF9029012E0FFF756F90299411A06
:1022D00041F2883081420AD9032426462878DFF863
:1022E0005CA3C0430AF1080AC00721D03CE0DAF839
:1022F00000008007E8D5D5F8B410C1F30120032809
:1023000058460DD0016821F47C510160B5F8B42025
:10231000DAF80010C2F30B021143CAF80010DDE72F
:10232000C84A036802EA111223F47C511143ECE716
:10233000E86F182816D005DCA0B1082808D01028AE
:1023400004D10AE020280DD028280BD001240AE06F
:102350000198012101F044FA03E00098012101F005
:10236000CFFA044664B126462878C04380071ED4BD
:10237000A86F062819D2DFE800F0160C1116161601
:10238000EA6FDAF8001021F038011143CAF80010A2
:10239000EAE70198012101F023FA03E00098012106
:1023A00001F0AEFA04467CB100E00124264628780C
:1023B000C04340071FD4D5F89400062819D2DFE89F
:1023C00000F0160C11161616AA6FDAF8001021F09C
:1023D00007011143CAF80010E9E70198012101F053
:1023E000FFF903E00098012101F08AFA0446A4B144
:1023F00000E0012426462878C04380062BD4D5F877
:102400009000B0F1405F24D011DC10B3B0F1805FD8
:1024100015D0B0F1005F10D116E0D5F89420D9F8AE
:10242000001021F007011143C9F80010E3E7B0F1F3
:10243000804F0ED0B0F1A04F0BD001240AE00198DC
:10244000002101F0CDF903E00098022101F058FAD3
:10245000044694B126462878C04340062BD4D5F8CC
:102460009C00B0F5406F24D011DC10B3B0F5806F44
:1024700015D0B0F5006F10D116E0D5F89020DAF83D
:10248000001021F0E0411143CAF80010E3E7B0F575
:10249000805F0ED0B0F5A05F0BD001240AE0019858
:1024A000002101F09DF903E00098022101F028FAD3
:1024B000044694B126462878C04300062BD4D5F8AC
:1024C000A000B0F5C04F24D011DC10B3B0F5005F10
:1024D00015D0B0F5804F10D116E0D5F89C20D9F872
:1024E000001021F4E0511143C9F80010E3E7B0F502
:1024F000004F0ED0B0F5204F0BD001240AE0019818
:10250000002101F06DF903E00098022101F0F8F9D3
:10251000044654B126462878C04300071ED4D5F897
:102520008400B0F5805F0AD00FE0D5F8A020D9F87C
:10253000001021F460411143C9F80010EBE7009846
:10254000022101F0DDF900B10126D5F88420DAF886
:10255000001021F440511143CAF800102878C043FC
:10256000C00613D4D5F89800B0F5807F05D1009847
:10257000022101F0C5F900B10126D5F89820D9F85B
:10258000001021F440711143C9F800102868C043BD
:10259000000316D4D5F8A40038B1B0F5803F09D0B7
:1025A000B0F5003F0BD001240AE00198002101F0B2
:1025B00017F903E00098022101F0A2F904468CB15A
:1025C00026462868C043400322D4D5F88800B0F5D9
:1025D000801F11D0B0F5001F13D0B0F5401F15D0EB
:1025E000012414E0D5F8A420D9F8001021F44031DA
:1025F0001143C9F80010E4E7386840F4003038604F
:1026000004E00098012101F07BF904465CB1264604
:102610002868C043C00323D4286DA8B1B0F5803F1B
:1026200017D001241BE0D5F88820DAF8001021F437
:1026300040111143CAF80010EAE700004C44025868
:1026400000480258CFFFFF00386840F4003038607F
:1026500004E00198022101F0C3F80446E4B12646E3
:102660002868C043800005D40098022101F048F991
:1026700000B101262868C04380031BD4D5F8800030
:10268000B0B1B0F5807F0FD0B0F5007F10D0B0F5BD
:10269000407F0DD001240CE05A482A6D016821F4D6
:1026A000803111430160DBE7386840F40030386066
:1026B000ECB326462868C043C00207D46A6FD8F836
:1026C000001021F000411143C8F800102868C043F1
:1026D000C00008D4D5F8B820DBF8001021F4804100
:1026E0001143CBF800102868C043800207D4EA6E7B
:1026F000D8F8001021F080711143C8F80010286844
:10270000C04340000CD4DBF8001021F40041CBF8AA
:102710000010DBF80010D5F8BC201143CBF80010F6
:102720002868C04308D437486A6D016800E018E0A3
:1027300021F04051114301602868C043000208D4D1
:10274000D5F88C20DAF8001021F440011143CAF8C2
:10275000001028790024C04300F0010020430AD073
:102760000FE0D5F88020DAF8001021F44071114311
:10277000CAF800109EE70198002101F031F800B17D
:1027800006462879C04300F00200204305D1019895
:10279000012101F025F800B106462879C04300F078
:1027A0000400204305D10198022101F019F800B17D
:1027B00006462879C04300F00800204305D1009860
:1027C000002101F09DF800B106462879C04300F0D1
:1027D0001000204305D10098012101F091F800B1CB
:1027E00006462879C04300F02000044304D1009835
:1027F000022101F085F800B916B10120BDE8FE8F75
:102800000020FBE74C4402582DE9F05F04000F461E
:102810007ED0DFF83882D8F8000000F00F00B84210
:102820000CD2D8F8001021F00F013943C8F800107D
:10283000D8F8000000F00F00B84269D12078844D2C
:1028400040070AD52069296801F07001884204D93F
:10285000296821F070010143296020787C4E361DE3
:1028600000070AD56069316801F07001884204D917
:10287000316821F07001014331602078C0060AD52B
:10288000A069316801F4E061884204D9316821F41B
:10289000E061014331602078DFF8B4B180060BF1CC
:1028A000080B0CD5E1695846DBF8002002F07002F5
:1028B000914204D9026822F070020A430260207833
:1028C00080070AD5E068296801F00F01884204D921
:1028D000296821F00F01014329602078C0073ED00C
:1028E0005B49A2682868183920F47060104328609A
:1028F0006068022818D0032819D00968012819D067
:10290000490700294ADADFF848A1AAF1080A00E0DD
:1029100044E0DAF8002022F007020243CAF800205F
:10292000FEF72AFE814612E009688903E9E7096893
:102930008901E6E7C905E4E7FEF71EFEA0EB090101
:1029400041F28830814202D90320BDE8F09F6168DE
:10295000DAF8000000F03800B0EBC10FECD12078BD
:1029600080070AD5E068296801F00F01884204D287
:10297000296821F00F0101432960D8F80010404672
:1029800001F00F01B9420BD9016821F00F01394361
:102990000160006800F00F00B84201D00120D4E7C8
:1029A000207840070AD52069296801F07001884223
:1029B00004D2296821F070010143296020780007C2
:1029C0000AD56069316801F07001884204D231682B
:1029D00021F07001014331602078C0060AD5A0695A
:1029E000316801F4E061884204D2316821F4E06189
:1029F00001433160207880060CD5E1695846DBF848
:102A0000002002F07002914204D2026822F07002AB
:102A10000A43026000F06CF80E492A682B68C2F382
:102A2000032203F00F038A5CC95C02F01F0201F06D
:102A30001F01D040084A20FA01F1116007490860DF
:102A400007480068BDE8F05FFEF7D2BD00200052E5
:102A500018440258D03B0108E0050024DC0500249E
:102A6000D405002430B500F043F80B4A0B490C4B59
:102A700015681468C5F3032204F00F048A5C095D2D
:102A800002F01F0201F01F01D040064A20FA01F1B6
:102A900019601060084630BD18440258D03B010848
:102AA000E0050024DC05002400B5FFF7DBFF054945
:102AB0000968054AC1F30211515C01F01F01C840C9
:102AC00000BD00001C440258D03B010800B5FFF7D0
:102AD000C9FF05490968054AC1F30221515C01F0AB
:102AE0001F01C84000BD00001C440258D03B010833
:102AF000454970B545480968434B103B11F0380211
:102B000008D00111082A03D0102A0BD0182A0BD0A4
:102B1000084670BD19688906FBD51968C1F3C10163
:102B2000C84070BD3A4870BD3749374D18310C1D4B
:102B300024350A68096826682D6802F0030406F047
:102B40000102C1F30511C5F3CC0515FB02F200EE3D
:102B5000102AB8EE400AE9B32F4ADFED2E0AB7EE8D
:102B6000001A6CB1DFED2D1A012C01D0022C43D0DC
:102B700002EE101A1068F8EE422A81EEA22A1EE038
:102B80001C68A40611D51B6801EE901A1168C3F3E6
:102B9000C103F8EE612AD84001EE900AC1F30800A3
:102BA000F8EE611A81EEA22A0BE001EE901ADFED39
:102BB0001C2A00BFF8EE611A106882EEA12AC0F349
:102BC000080001EE900AF8EE611A40EE201A31EE8C
:102BD000810A00E015E022EE000A1068C0F34620EA
:102BE000401C00EE900AF8EE600A80EE201ABCEE5F
:102BF000C10A10EE100A70BD01EE901ADFED092A2D
:102C0000D8E7002070BD0000104402580090D003A7
:102C100000127A0000000039304402580024744A3F
:102C20000024744C0024F44A2DE9F05F04007DD0A8
:102C3000FF4F2078FE4D1837DFF8F493103DC007A2
:102C400048D0D9F80000396800F03800102815D0B5
:102C5000182803D101F0030002280FD06068B0F5F6
:102C6000803F12D010B1B0F5A02F18D0286820F402
:102C700080302860286820F4802009E028688003DC
:102C800028D560680028D2D024E0286840F480303D
:102C90002860606888B1FEF76FFC064609E0286886
:102CA00040F480202860F0E7FEF766FC801B642873
:102CB0006FD828688003F7D50CE0FEF75DFC064668
:102CC00005E000BFFEF758FC801B6428F0D8286898
:102CD0008003F7D4207841F20308D54E0C3E8007DC
:102CE00069D5D9F80000396810F038000ED01828DE
:102CF00001D188070AD0E06890B3296821F0190152
:102D000001432960FEF738FC824631E0286840071D
:102D100002D5E06800288AD0E168286820F0190010
:102D200008432860FEF728FC824607E0DFE000BF8A
:102D3000FEF722FCA0EB0A000228B9D82868400759
:102D4000F6D500BFFEF712FC40451BD8206940288D
:102D500012D0316821F47C3141EA003030602AE041
:102D600018E000BFFEF708FCA0EB0A0002289FD87D
:102D700028684007F6D5E5E7306820F47C3040F459
:102D80000030EBE7207C316821F0FE4141EA006031
:102D9000E4E70DE1286820F001002860FEF7ECFB75
:102DA000824605E0FEF7E8FBA0EB0A0002288DD87A
:102DB00028684007F6D42078C0065DD5D9F8000011
:102DC000DFF86CB2396800F03800ABF1040B08286A
:102DD00010D0182803D101F0030001280AD0E069BF
:102DE0000028286838D040F080002860FEF7C4FB37
:102DF000824623E02868C00523D5E069802876D183
:102E00001FE0206A202821D0316821F0F84141EAF2
:102E10008060306030E000BF94F82010DBF80020C4
:102E200022F07C5242EA0161CBF8001024E000BF9E
:102E3000FEF7A2FBA0EB0A00022898D82868C0057C
:102E4000F6D5FEF793FB4045E6D8DAE7306820F088
:102E5000F84040F08040DCE720F080002860FEF77A
:102E60008BFB064605E000BFFEF786FB801B0228B1
:102E70009DD82868C005F7D42078000729D56C486C
:102E80006169643000298046016811D041F0010178
:102E90000160FEF771FB064605E000BFFEF76CFB24
:102EA000801B0228C9D8D8F800008007F6D510E0AA
:102EB00021F001010160FEF75FFB064605E000BF5F
:102EC000FEF75AFB801B022872D8D8F80000800752
:102ED000F6D42078800623D5A0690028286810D071
:102EE00040F480502860FEF747FB064605E036E1D7
:102EF000FEF742FB801B02285AD828688004F7D5C9
:102F00000EE020F480502860FEF736FB064604E011
:102F1000FEF732FB801B02284AD828688004F7D4C9
:102F2000207840074FD5DFF80C81D8F8001041F425
:102F30008071C8F80010FEF71FFB064605E000BFD1
:102F4000FEF71AFB801B642832D8D8F80000C005B1
:102F5000F6D5374EA068603601280AD008B105289A
:102F600013D0306820F001003060306820F0040099
:102F700002E0306840F001003060A06841F2883A19
:102F800090B1FEF7F9FA80460AE0306840F004009C
:102F90003060EEE7FEF7F0FAA0EB0801514507D8E4
:102FA00030688007F6D50EE0FEF7E6FA804607E0C7
:102FB00084E000BFFEF7E0FAA0EB080151457DD8A0
:102FC00030688007F6D4606AB0B3DFF86480D9F85F
:102FD000001008F120084FF6F87B08F10409C1F34E
:102FE000C2010329A8F1040A69D00228286820F048
:102FF0008070286003D0FEF7BFFA044684E0FEF735
:10300000BBFA064605E000BFFEF7B6FA801B0228B1
:1030100077D828688001F7D4E26A40F2F331386843
:1030200054F8283F884340EA02101843386004E00F
:103030001044025800480258B5E0217B43462289DB
:103040004FF4FE0C208A4FF0FE474902267D521EA7
:10305000401EA1F50071C2F308088AB2761E0CEA80
:10306000004042EA08020243504607EA06610A436A
:103070001A60DAF8002022F00102CAF80020D9F81C
:103080000020266A22EA0B0242EAC602C9F80020A2
:10309000DAF80010A26921F00C011143CAF80010FF
:1030A0000168E26921F0020111430160016841F405
:1030B00080310160016841F4003101E021E027E046
:1030C0000160016841F480210160016841F0010163
:1030D0000160286840F080702860FEF74DFA0446D1
:1030E00005E000BFFEF748FA001B022809D828684F
:1030F0008001F7D557E000BFFEF73EFA001B02281B
:1031000002D90320BDE8F09F28688001F4D44AE08A
:1031100039680128D8F8000021D0A26A01F0030321
:1031200093421CD1E26AC1F305118A4217D1216B87
:10313000C0F30802491E8A4211D1616BC0F34622D6
:10314000491E91420BD1A16BC0F30642491E914228
:1031500005D1E16BC0F30660491E814201D0012018
:10316000D0E7A16C4E46D9F80000C0F3CC008142F4
:1031700019D0DAF80000554620F00100CAF8000026
:10318000FEF7FAF94FEA0007FEF7F6F9B842FBD06E
:10319000A26C306820EA0B0040EAC2003060286868
:1031A00040F0010028600020ACE7401EB0F1807FB5
:1031B00010B501D3012010BD4FF0E02460610F2154
:1031C000601701F04EF80020A0610721216110BDB9
:1031D00030B590F88410012918D0012280F884209D
:1031E0002421C0F888100022202401680B680D6893
:1031F00023F0005325F001050D60426601680B6065
:10320000C0F8884080F88420104630BD022030BDD0
:1032100070B5044690F8840001281DD0012284F87E
:1032200084202420C4F8880020680568026822F001
:10323000010202602068826822F060620A438260B4
:10324000204600F0C3FC2268202100201560C4F84D
:10325000881084F8840070BD022070BD70B50446EB
:1032600090F8840001281DD0012284F884202420B5
:10327000C4F8880020680568026822F00102026034
:103280002068826822F060420A438260204600F093
:103290009DFC2268202100201560C4F8881084F865
:1032A000840070BD022070BD10B5040003D0D4F8B6
:1032B000880010B107E0012010BD002084F88400D0
:1032C000204600F027F82420C4F888002068016810
:1032D00021F001010160A06A10B1204600F098FCC5
:1032E000204600F079FD0128E6D02068416821F4ED
:1032F000904141602068816821F02A018160206846
:10330000016841F0010101602046BDE8104000F075
:10331000E3BC0000F0B5B7B00446142130A8FDF7B7
:1033200025F8C0216846FDF721F81E49206888422B
:1033300035D100201F9001210446CDE900106846D8
:10334000FEF78CFD08B1FDF749FB1748016841F015
:1033500010010160006800F010003590124810382C
:10336000016841F0010101600068022507260F4F46
:1033700000F00100359068023090CDE93154CDE97C
:10338000334630A93846FDF7CDFF280232AACDE9F1
:10339000300530A9384682E87000FDF7C3FF37B02A
:1033A000F0BD000000100140F04402580000025837
:1033B0002DE9F8430446D0F88800984616460D4695
:1033C000202802D00220BDE8F883A5B19EB10021DB
:1033D000C4F890102120C4F888001834FEF7CCF807
:1033E000814654F8100CA687E6872027183CB0F5D4
:1033F000805F02D003E00120E5E7206910B12E468E
:10340000002510E000260EE08021204600F0BAFEE4
:10341000C0B9DEB116F8010B21688862B4F8560015
:10342000401EA4F85600B4F856004B464FF0000278
:10343000CDF800800028E7D14FF04001204600F091
:10344000A1FE48B1C4F888700320BCE735F8020B30
:103450002168C0F30800E0E7C4F888700020B2E7F4
:10346000FEE78068C0F3C00070478068C0F380004A
:1034700070478068C0F380007047000030B58BB0A3
:10348000002468461C21079408940994FCF76EFFF9
:103490001C4804251A4A0121C0E900248460C0E9BF
:1034A0000345047544758161047744628462C46293
:1034B0000463446380F83840C163FDF743FD08B1FD
:1034C000FDF78CFA0F4807A90794FDF797FA08B1A2
:1034D000FDF784FA0C48062140F2FF7203928DE852
:1034E000130008486946CDE904548DF81940FDF7EA
:1034F00019FB002801D0FDF771FA0BB030BD0000B8
:1035000000200240E01200240000B84F0A480021C9
:10351000084B012210B503600171417141610262E3
:103520008161FDF79DFE002803D0BDE81040FDF746
:1035300055BA10BD004C02584413002470B586B033
:1035400014216846FCF712FF1A48016841F0010196
:103550000160016801F001010591016841F0040179
:103560000160016801F004010591016841F08001EA
:10357000016000684FF400550F4E002200F08000FB
:10358000294605903046FDF7EBFF00240095012009
:103590006946CDE9010430460394FDF7C3FE0220DD
:1035A0000290CDE9000405486946FDF7BBFE06B070
:1035B00070BD0000E04402580008025800000258A4
:1035C0001848002110B5164C0C224FF4E13304606A
:1035D000C0E90131C160C0E904128161C1610162C9
:1035E00041628162FFF760FE08B1FDF7F7F90D480F
:1035F0000021FFF733FE08B1FDF7F0F9094800217B
:10360000FFF706FE08B1FDF7E9F90648FFF7E0FD10
:10361000002803D0BDE81040FDF7E0B910BD000060
:10362000001001406813002404A010B500F0F6FD5E
:10363000BDE81040094802F0A7B800000D0A544543
:103640004D504C415445202D20696E697469616C60
:10365000697A6174696F6E0D0A000000C00500246C
:103660002DED028B2CA000F0D9FD354F4FF444789E
:10367000344E3D4642460020D7F8001006EB800449
:1036800001EB800394ED000A401C904283ED000A98
:10369000F4DB05F10C0007C802F040FA012805D060
:1036A000E86802F00DFA28A102F058F92448002435
:1036B000001D01685FF0010091ED008A01EB8002BE
:1036C00092ED000AB4EEC80AF1EE10FA02DDB0EE97
:1036D000408A0446401C0A28F0DB1FA000F09EFD33
:1036E00027A0214600F09AFD9FED290A29A028EE87
:1036F000000AB7EEC00A53EC102B00F08FFD2BA090
:1037000000F08CFD4FF4FA60FDF7FAFD31484FF4FC
:103710000051FDF71DFFADE7414920E5BC95E6935B
:103720008EE5B7B2E590AFE58AA8EFBC8CE5878659
:10373000E5A487E8AF86E588AB2E2E2E0D0A0000A3
:10374000B8050024682F010861695F6E6574776FA2
:10375000726B5F72756E00002D2D2D2D2D2D2D2D70
:103760002D2D2D2D2D2D2D2D2D2D2D2D2D2D2D2D89
:103770002D2D2D2D2D2D2D2D2D2D0D0A0000000070
:10378000526573756C743A202564200D0A000000A0
:103790000000C84250726F626162696C6974793A64
:1037A00020252E32662525200D0A00002D2D2D2DD9
:1037B0002D2D2D2D2D2D2D2D2D2D2D2D2D2D2D2D39
:1037C0002D2D2D2D2D2D2D2D2D2D2D2D2D2D0D0A6C
:1037D0000A00000000080258FEE7FEE770470000FC
:1037E0002DE9F047454D044689464FF0000A286808
:1037F000C04380070AD0414E283E306820F08060E8
:103800003060FDF7B9FE0746B04608E00120BDE88C
:10381000F08700BFFDF7B0FEC01B022867D8D8F8BC
:1038200000000001F6D4206829684FF4FE0721F457
:103830007C313E0241EA00302860207AA389B4F846
:1038400004C040022D4D2D495B1E227CACF1010CC1
:103850001035091DA0F5007080B2521ECCF3080C83
:1038600007EA034340EA0C00184306EA02621043E9
:1038700028600868626920F0C000104308600A6888
:10388000A06922F0200202430A60281D0A6822F083
:1038900010020A6002684FF6F873E4699A4342EA3C
:1038A000C40202600868B9F1000F40F010020A601B
:1038B00011D00868B9F1010F11D040F40010086070
:1038C000D8F80000444640F08060C8F80000FDF7DA
:1038D00053FE05460DE0086840F40020EFE740F491
:1038E0008010ECE7FDF748FE401B022801D90320B9
:1038F0008DE720680001F5D5504688E72844025836
:103900002DE9F047454D044689464FF0000A2868E6
:10391000C04380070AD0414E283E306820F08050D6
:103920003060FDF729FE0746B04608E00120BDE8FB
:10393000F08700BFFDF720FEC01B022867D8D8F82B
:1039400000008000F6D4208829684FF4FE0721F09B
:103950007C713E0241EA00502860207AA389B4F8C5
:1039600004C040022D4D2D495B1E227CACF1010CA0
:103970001835091DA0F5007080B2521ECCF3080C5A
:1039800007EA034340EA0C00184306EA02621043C8
:1039900028600868626920F44060104308600A6883
:1039A000A06922F4007202430A60281D0A6822F40A
:1039B00080720A6002684FF6F873E4699A4342EA3B
:1039C000C40202600868B9F1000F40F480720A6016
:1039D00011D00868B9F1010F11D040F08070086073
:1039E000D8F80000444640F08050C8F80000FDF7C9
:1039F000C3FD05460DE0086840F48000EFE740F4A1
:103A00000000ECE7FDF7B8FD401B022801D90320B8
:103A10008DE720688000F5D5504688E72844025895
:103A20007047FDF7AFBD000030B59DB04C21684632
:103A3000FCF79CFC202113A8FCF798FC0220FDF762
:103A400085FE224800242249026842F44042026076
:103A500002680A6842F001020A60096801F0010187
:103A60001B9101688904FCD50DF1280C02200990F6
:103A700004214FF4F0758CE823000FAD0D900E90EB
:103A80004FF4A023012285E81300CDE90023684606
:103A90001294FFF7C9F808B172B6FEE740201A90F9
:103AA00008230501CDE9163013ABCDE918053F21F8
:103AB000032283E81600042113A8FEF7A5FE0028C0
:103AC00001D072B6FEE71DB030BD000018480258A4
:103AD0002C0400583348F0B5334A016841F47001B2
:103AE0000160106800F00F00072804D2106820F071
:103AF0000F00C01D10602D4900202C4C10340B68A5
:103B00002B4D43F001030B6020600B682B400B60D2
:103B1000136803F00F03072B04D9136823F00F0376
:103B2000DB1D1360214C234A1834234B261D371DFF
:103B300020601E4C214D28343060261D3860371D12
:103B400023603B1D35601C1D3A60251D2E1D18602D
:103B5000331D22602860326018600A68134B184CCD
:103B600022F4802260330A60186020686FF30F002F
:103B7000B0F1005F03D213490120C1F808010B48DE
:103B8000D4300168C9040BD4026843F2D2010E4B51
:103B900042F4805202601960016821F48051016092
:103BA000F0BD000088ED00E0002000520044025803
:103BB0007FEDF6EA80020101000202020000FF012F
:103BC0000010005C008000510040005230B5416E92
:103BD000B9B101680D4B03F108048A688968C2F322
:103BE0004262490F5D5C615C2D01B5FBF1F1A0F80B
:103BF0006A10995CA25C0901B1FBF2F1A0F86810AF
:103C000030BD0121A0F86A10F8E70000C03B0108B0
:103C100090F82810090706D50168836B4A6822F4DA
:103C200000421A434A6090F82810C90706D001687C
:103C3000C36A4A6822F400321A434A6090F8281096
:103C4000890706D50168036B4A6822F480321A435B
:103C50004A6090F82810490706D50168436B4A6806
:103C600022F480221A434A6090F82810C90606D52B
:103C70000168C36B8A6822F480521A438A6090F804
:103C80002810890606D50168036C8A6822F4005260
:103C90001A438A6090F82810490611D50168436CD0
:103CA0004A6822F480121A434A60416CB1F5801FC1
:103CB00006D10168836C4A6822F4C0021A434A6044
:103CC00090F82810090606D50168C26C486820F4EF
:103CD00000201043486070472DE9F8430025044652
:103CE000C0F89050FDF748FC8046206820266FF011
:103CF0007E470068000713D5002243463104204662
:103D0000009700F03FFA58B1216851E8000F20F009
:103D1000800041E80002002AF6D1C4F8886021E062
:103D200020680068400722D5002243464FF48001F6
:103D30002046009700F026FAC8B1206850E8001F1E
:103D400021F4907140E80012002AF6D12068083072
:103D500050E8001F21F0010140E80012002AF5D1CF
:103D6000C4F88C60032084F88450BDE8F883C4F85C
:103D70008860C4F88C60E5662567002084F884506C
:103D8000F3E7000010B5026852E8001F21F49071BB
:103D900042E80013002BF6D10E4B0268083252E8BD
:103DA000001F194042E80014002CF6D1C16E012911
:103DB00008D1026852E8001F21F0100142E8001308
:103DC000002BF6D100212022C0F88C20C16641676B
:103DD00010BD0000FEFFFFEF2DE9F04304468068B0
:103DE000D84E87B0D84B2168D4E90427D4F81CC03A
:103DF00010430A68002547EA0C0738433240024363
:103E00000A602068E268416821F440511143416032
:103E10002268A1699A4201D0206A01439768DFF8BD
:103E20002CC3CB4ECB4807EA0C070F4397602168A1
:103E3000676ACA6A22F00F023A43CA622268B24233
:103E40000ED1006800F03800182873D047DCB8B3F2
:103E5000082879D010286FD178E028287ED17BE01F
:103E6000BD498A4209D1006800F00700062875D2D2
:103E7000DFE800F0546A6C6E7072B8498A4209D16A
:103E8000006800F00700062868D2DFE800F0475D10
:103E90005F616365B2498A4209D1006800F007009A
:103EA00006285BD2DFE800F03A5052545658AD492C
:103EB0008A420BD1006800F0070006284ED200E0CD
:103EC00010E0DFE800F02B4143454749A6498A420C
:103ED0000AD1006800F03800182839D0B7DD202852
:103EE000BBD13CE001203AE0A0498A4209D10068F8
:103EF00000F00700062831D2DFE800F01026282A5B
:103F00002C2E9B498A420BD1006800F0070006283E
:103F100024D2DFE800F003191B1D1F2100201EE042
:103F20009A421BD18B48001D006800F0070006284C
:103F300014D202E00CE007E010E0DFE800F0030537
:103F400007090B0D02200AE0042008E0082006E023
:103F5000102004E0202002E0402000E0802085497D
:103F6000DFF814829A42854A4FF400434FEA211742
:103F70004FF000064ED110281AD006DC022809D0D6
:103F800004280BD008287CD10DE020283ED0402802
:103F900077D13DE0FDF704FC014610E06846FDF7EF
:103FA000B5FC01990BE003A8FDF752FD049906E06A
:103FB0001068800605D51068C0F3C100C140002913
:103FC00070D0606A676838F8102007EB4703B1FBD0
:103FD000F2F0834255D8B0EB073F52D80023084691
:103FE0001946FCF779F902467808130E120243EAE3
:103FF000012110183A4671410023FCF76DF9604A1F
:10400000A0F5407191423CD821688FE03946D8E74D
:104010001946D6E7D4F81CC04FF6EF799C4546D137
:10402000082819D005DC58B101280CD0042875D116
:104030000DE0102815D0202835D040286ED134E06E
:10404000FEF732FD01E0FEF741FD014610E0684653
:10405000FDF75CFC01990BE003A8FDF7F9FC04995E
:1040600006E01068800604D51068C0F3C100C140A6
:10407000C1B1636A606838F81330B1FBF3F14900ED
:1040800000E04BE001EB5001B1FBF0F0A0F11001BA
:10409000494543D84FF6F0732168C0F342021840F7
:1040A000104343E043E03946E3E71946E1E70828D7
:1040B00019D005DC58B101280CD004282ED10DE010
:1040C000102815D020282BD0402827D12AE0FEF731
:1040D000EBFC01E0FEF7FAFC014610E06846FDF754
:1040E00015FC01990BE003A8FDF7B2FC049906E06A
:1040F0001068800604D51068C0F3C100C140B1B19A
:10410000636A606838F81330B1FBF3F101EB5001DA
:10411000B1FBF0F0A0F11001494505D9012506E0F9
:104120003946EDE71946EBE7216880B2C860012007
:10413000A4F86A00A4F8680028466667A66707B076
:10414000BDE8F083F369FFCF000C0058FFF4FF11C6
:104150000010014054440258004400400048004010
:10416000004C004000500040001401400078004026
:10417000007C00400090D003A83B01080044025896
:10418000FFFC0F002DE9F047994617460D460446FF
:10419000089E4FF0000833E0701C31D0FDF7ECF9B9
:1041A000A0EB0900B04218D8BEB1206801684907E9
:1041B00026D5802D24D0402D22D0C169C9430907BE
:1041C0000DD4082505622046FFF7DCFDC4F89050A9
:1041D000012084F88480BDE8F0870320FBE7C069F4
:1041E000C04300050CD421684FF4006008622046EB
:1041F000FFF7C8FD2021C4F8901084F88480ECE714
:104200002068C06935EA000004D00020B842C3D05D
:104210000020E0E70120F9E7FEE700000FB4054BBE
:1042200010B503A9044A029800F070FE10BC5DF8B6
:1042300014FB000041650008E40500244100080269
:1042400018BF04200A0E18BF40F001004FF07F4253
:1042500032EA010108BF40F00200012808BF052032
:104260007047090700284FEA116104DB00F1E020E4
:1042700080F80014704700F00F0000F1E02080F893
:10428000141D70479FED4B0A63E000BFD2ED003A6A
:1042900091ED004A92ED013AD1ED011A04EE230AA4
:1042A00092ED022AD1ED022A92ED031AD1ED030A12
:1042B00092ED044A01EE830AD1ED043A92ED053AFB
:1042C000D1ED061A02EE820AD1ED052A92ED062AF8
:1042D00000EE810A92ED071AD1ED070A03EE840A77
:1042E000D2ED083A91ED094A02EE830A91ED083ABF
:1042F000D2ED0A2A01EE820A91ED0A2AD2ED0B1ABA
:1043000000EE810AD2ED090A91ED0B1A03EE230AA1
:10431000D2ED0C3A91ED0D3A04EE200A91ED0C4AE3
:10432000D1ED0E0A02EE220A92ED0D2AD2ED0E2AEE
:1043300001EE210A92ED0F1AD1ED0F1A40314032F1
:10434000103B04EE230A03EE020A00EEA20A01EE7D
:10435000810A102B9AD21AE0D1ED000A92ED001AD0
:10436000D1ED011A92ED012A00EE810AD1ED020A87
:1043700092ED021A01EE820AD1ED031A92ED032AA0
:10438000103110321B1F00EE810A01EE820A042B4D
:10439000E2D206E0F1EC010A5B1EB2EC011A00EE7B
:1043A000810A002BF6D1D0ED000A30EE800A80EDB4
:1043B000000A70470000000010B510EE104A4FF0E0
:1043C00019406849002200EB44002DED028B884221
:1043D00057D8DFED650A14F0004F60EE200A14BFD5
:1043E0009FED621A9FED621A71EE200AFDEEE00A5F
:1043F00010EE900A00EE900AF8EEE00A9FED5D1ACA
:1044000000EEC10A9FED5C1A00EEC10ADFED5B0A07
:104410009FED5B1A00EE201ADFED5A0A40EE010A0A
:104420009FED591A594B00F0030100EE201A21EEBE
:10443000000A7B4403EB8103D3ED000A544B7B4419
:1044400003EB810393ED001A524B41EE000A7B44CB
:1044500003EB8101801091ED000A70EE800AEABB47
:1044600000EE100AB8EEC01ADFED4B1A9FED4B0AB2
:10447000BDEC028B01EE210ABCEEC00A20EE200A40
:1044800010BD4FF0FF40A0431BD04FF0CE40B0EB2B
:10449000440F82BF9FED420ABDEC028B10BD414824
:1044A000B0EB440F28BF012293D2022000F0A2F803
:1044B00014F0004F15D0BDEC028BBDE8104000F0A9
:1044C00081B814F5000F02BF9FED370ABDEC028BD7
:1044D00010BDBDEC028BBDE8104000E007E000F02D
:1044E00065B8BDEC028BBDE8104000F063B800EB8E
:1044F000D07359104FF07E5202EBC15100EE101AEA
:10450000A0EB630002EBC05060EE200A00EE100A40
:1045100020EE208A18EE100A88B118EE100AB0F1C9
:10452000FF4F15D018EE100AFFF788FE042808BFC9
:1045300000F048F8B0EE480ABDEC028B10BD022036
:1045400000F058F8BDEC028BBDE8104000F03AB81E
:10455000022000F04FF8BDEC028BBDE8104000F0E7
:1045600029B800000000501E3BAAB840000000BF60
:104570000000003F0070313EF4FD053712BB2A3DBC
:1045800012BB2A3EFFFFFF3EFFFF7F3F22F80000E5
:1045900026F80000F6F700000000004B00007E4EF9
:1045A0000000803F0000A0850000000030EE000AFF
:1045B000704700009FED020A20EE000A70470000DD
:1045C000000000709FED020A20EE000A7047000014
:1045D0000000001002E008C8121F08C1002AFAD12A
:1045E00070477047002001E001C1121F002AFBD173
:1045F000704700000149086070470000E80500248A
:1046000010B54169044688472069A04200D10020C6
:1046100010BD00002DE9F04F00260F4699B0054669
:10462000B04634464DE000BFA868C4EBC4028946DA
:10463000D0E9013C03EB82000B902D480FAA0292B7
:104640000CEBC40A51F8082F006A49680C91110A52
:1046500061F31F201C21834604A8FBF787FED9F8CD
:104660001800006800F0F8FF0490D9F8180080687E
:1046700005905FEA0A0009D0C0F80080D9F8001060
:10468000416029B1498819B1012102E0404603E0A7
:104690000021016001B900200690D9F818001C2201
:1046A00004A94068CDE9080B0C980A900298FBF722
:1046B00044FE0B981C220FA9FBF73FFE761CB6B2F6
:1046C000641C0DB1288800E00020A04205D968686C
:1046D00018B150F824100029A6D11EB1A86840686E
:1046E000386001E0C7F8008019B03046BDE8F08FAF
:1046F000E03B010810B59FED0C1AD3ED000A01EB69
:10470000820400EB8200001F241F8C420BD394ED27
:10471000000AB4EEE00AF1EE10FA01D8B0EE410A58
:1047200080ED000AEFE710BD000000002DE9FF5FFB
:1047300082B00021DDE90430020DDDF840B0034312
:1047400018D044F61050A2F2FF32424315141198CB
:1047500001281FD0A5EB0B00401C5FEA000A4FF0B8
:1047600000064E4FDFF83891B046504615D5CAF1D5
:10477000000413E0119801244AA3012801D16FEA33
:104780000B010298119AC0E90031C0E9024206B05B
:10479000BDE8F09FCBF10000DFE704460021404A6E
:1047A000491842EB0450CDE9001012E0E00707D0B1
:1047B00032463B4640464946FBF7CCFE804689469A
:1047C00032463B4610461946FBF7C4FE06460F46E6
:1047D0006410002CEAD1DDE90401DDE90023BAF11F
:1047E000000F06DAFBF7B6FE42464B46FBF7B2FE79
:1047F00005E0FBF721FF42464B46FBF71DFF044651
:104800000E460022284BFBF79FFF03D84FF0FF30E6
:10481000014607E00022254B20463146FBF7F3FD19
:10482000FBF779FF102409E0002C0ADB0A220023A1
:10483000FBF752FD039B30321A55641E50EA010209
:10484000F2D1641C039AC4F111031444119A012A91
:1048500003D0012208430DD10AE0084304D0002010
:104860004FF0110B119072E7A3EB0B056D1E0DE0DD
:104870005B4504DD4FF0000205F1010504E003DAB9
:104880004FF00002A5F10105002AECD00298119921
:10489000C0E90231C0E9004579E70000000014409A
:1048A0000000F03F300000000000F0430000E03F57
:1048B0002DE9F0478246089D25F00100EC0803EB46
:1048C00080099FED450A55E001C993ED001A00F0FB
:1048D0000F07C0F3031602EB870702EB8606D3ED42
:1048E000014AD6ED000AD7ED001AC0F3072C00EEFE
:1048F000810A4FEA1C1C93ED025A02EB8C07C0F3AD
:104900000328D7ED000A01EEA40A02EB880693ED16
:10491000033AD6ED002AC0F3074C93ED044A00EEAB
:10492000850A4FEA1C1CC0F3034702EB8C0C02EB18
:1049300087079CED002A02EE830A97ED001AD3ED5B
:10494000053A060FD3ED064A02EB860602EE040A8C
:10495000D6ED001AC0F3036093ED075A02EB800016
:10496000203301EE230AD0ED000A641E01EEA40AF2
:1049700000EE850A002CA7D116E000BF11F8010B4C
:1049800093ED002A93ED011A040900F00F0002EBE9
:10499000840402EB8000D4ED001AD0ED000A083345
:1049A00001EE820A00EE810A4B45E7D3E8070AD000
:1049B00011F8010B93ED001A000902EB8000D0ED15
:1049C000000A00EE810ADAED000A084630EE800A9D
:1049D0008AED000ABDE8F08700000000F0B504464B
:1049E0009FED3E0A059D03EB8500103827E00E7809
:1049F00093ED001A4F7802EB8606D3ED012AD6ED2F
:104A0000000A02EB870611F802CF00EE810A96ED4C
:104A1000001A02EB8C0791F801C093ED022AD7ED42
:104A2000000A02EB8C0601EE220AD3ED031A891C60
:104A3000103300EE820AD6ED000A00EEA10A83428E
:104A4000D5D915F0030041D0012804D002280DD09B
:104A500003283BD11EE011F8010B93ED001A02EB85
:104A60008000D0ED000A00EE810A2FE00878D3ED37
:104A7000001A4D78891C02EB8000D3ED010A90EDFD
:104A8000001A02EB850001EE210A90ED001A01EEFA
:104A9000200A1BE0087893ED002A4D7802EB800095
:104AA0008E7893ED011AD0ED001A02EB8500D3ED5C
:104AB000020A01EE820AD0ED001A02EB8600C91C40
:104AC00001EE810A90ED001A01EE200AD4ED000AF1
:104AD000084630EE800A84ED000AF0BD00000000B8
:104AE00070B5054648880C466988884202D9A2B14B
:104AF000002070BD8AB100260BE06168C6EBC600DD
:104B00006A6801EB800102EB80001C22FBF715FCB8
:104B1000761C6088B042F0D801E060686860608808
:104B2000688020882880012070BD000030B500B367
:104B3000F9B1F2B15268E2B10F4C1368A34203D04D
:104B40000129026013D014E00023121D07E000BF0A
:104B500052F82350A54204D040F823505B1C8B42EE
:104B6000F6D38B4205D152F82300A04201D1012097
:104B700030BD002030BD0000DECAFAA170B50600CD
:104B80000D4614461AD0CCB1104600F041FE00B1DB
:104B90006088A84212D10421002309E0C3EBC302BC
:104BA000606801EB8202805820B146F823005B1C4C
:104BB000AB42F3D3AB4201D1012070BD002070BDE8
:104BC0000349884201D1012070470020704700004E
:104BD000DECAFAA12DE9FE4F04009246894603D0B1
:104BE000208E20B1656B03E00020BDE8FE8F00251C
:104BF000217C00206083C9432083880702D03022B3
:104C00001121DCE0B9F1000F62D0002D60D02888BE
:104C1000C8B3D9F818000026D0F8008056E0A8687C
:104C2000006800EB0610019052D060B3C6EBC600DE
:104C30000290012109EB8000009000F0F3FD024694
:104C4000DBF8180041688A421AD8009ADBF80C3069
:104C50009269DF68D2F80CC0674511D19F68D2F81D
:104C600008C067450CD15B685268934208D1006860
:104C700000F0E3FC0746584601F06EFC874203D281
:104C8000182212219BE023E0DBF81800006800F0F6
:104C9000E3FC0299C00159F82110B0EBC11F01D00B
:104CA0001922EEE70098406890B10098806900688A
:104CB00080B14045414600D208465A468046DDE96B
:104CC000001000F08FF806F101062DB1288804E0ED
:104CD0001722D6E72122D4E70020B04206D968681F
:104CE00020B150F826B0BBF1000F98D1BAF1000FF7
:104CF00073D0208E012806D9656B0C3503D0288827
:104D000008B1002657E0182258E0A868006800EBB8
:104D1000061B39D0BBF1000F36D0C6EBC6000190A0
:104D200001210AEB8000009000F07CFDD9F81830DA
:104D300059688842E7D8009AD9F80C009269C76888
:104D4000D2F80CC06745DED18768D2F808C0674545
:104D5000D9D1406852689042D5D1186800F06DFCF6
:104D60000746484601F0F8FB8742CCD3D9F8180033
:104D7000006800F071FC0199C0015AF82110B0EBF5
:104D8000C11F03D0192219E0172217E000984068CC
:104D90000028F9D000988069006870B1404541460C
:104DA00000D20846009980464A46584600F01AF854
:104DB00006F101063DB1288806E021221321204694
:104DC00001F054F810E70020B04206D9686820B11D
:104DD00050F82690B9F1000F97D14FF00100A4F8D8
:104DE000188002E770B50E4604461546104601F0DD
:104DF000B3FBA0600146B06900684843E060716899
:104E00006160726810442060A8690268920007D44B
:104E1000D0E90223D21A11448160A9696068C86090
:104E200070BD2DE9F0410025064620E0B268816999
:104E300013680A6803EB0514920005D58968D4E964
:104E4000010201F089FC08E0D1E902236768D21A67
:104E50003A448A6080696168C16094E8070011443F
:104E60006160814201D3E168411A61606D1C0EB13D
:104E7000308800E00020A84206D97068002803D0DE
:104E800050F825000028D1D1BDE8F0812DE9F0418E
:104E9000002506462BE0B26888691268036802EBB9
:104EA00005149A000FD58068D4E9011201F054FC72
:104EB000D4E90101084460602168884201D3E068B8
:104EC000081A606012E0D4E90020A368184460600A
:104ED000904201D3E068101A60608A69D2E9023713
:104EE000DB1B1844906089696068C8606D1C0EB156
:104EF000308800E00020A84206D97068002803D05E
:104F000050F825100029C6D1BDE8F0812DE9FF4FEA
:104F100095B09B468946064600250FE2252877D1A5
:104F200000242746F84A0121059400E0044316F8BE
:104F3000013F203B01FA03F01042F7D130782A28D4
:104F400011D06FF02F033078A0F13002092A16D863
:104F5000059A44F0020402EB820203EB4202104481
:104F6000761C0590EFE759F8042B0592002A03DA26
:104F7000504244F40054059044F00204761C30780A
:104F80002E2816D116F8010F44F004042A280DD05B
:104F90006FF02F023078A0F13003092B09D807EB0E
:104FA000870302EB4303C718761CF3E759F8047B29
:104FB000761C30786C280FD006DC4C2817D0682877
:104FC0000DD06A2814D104E0742810D07A280FD1AB
:104FD0000DE044F400140AE044F4801401E044F4C9
:104FE00040147278824202D104F58014761C761C3B
:104FF000307866280BD013DC582877D009DC0028DD
:1050000075D04528F6D04628F4D047281AD19DE11E
:1050100018E0632835D0642879D0652812D195E14D
:10502000702873D008DC6728F1D069286FD06E280B
:105030000DD06F2806D1B5E073282CD0752875D017
:10504000782874D05A46179990476D1C75E1C4F3BF
:105050000250022809D003280DD0D9F800100428E6
:105060000DD00D6009F1040967E1D9F80010EA17C5
:10507000C1E90052F6E7D9F800100D80F2E70D7093
:10508000F0E719F8041B8DF8001000208DF80100DE
:10509000EA46012003E059F804AB4FF0FF30610706
:1050A0004FF0000102D40DE008F101018846B94239
:1050B0000FDA8045F8DB1AF808100029F4D108E06F
:1050C00008F1010188468142FADB1AF8081000292C
:1050D000F6D105985B46A0EB080721463846179A9B
:1050E00000F094FA284400EB080507E04DE029E1C0
:1050F0000DE01AF8010B5A4617999047B8F10108CC
:10510000F7D25B4621463846179A13E142E00A225D
:105110000092C4F302524FF0000A022A08D059F854
:1051200004CB032A4FEAEC710AD00DE029E02AE013
:1051300009F1070121F00702F2E802C1914609E0F6
:105140000FFA8CFC4FEAEC71042A03D14FFA8CFC65
:105150004FEAEC71002907DA0A460021DCF1000C65
:1051600061EB02012D2202E0220504D52B228DF8ED
:105170000420012203E0E20701D02022F7E7904655
:1051800059E00A2102E010220DE010214FF0000A40
:1051900000910BE010224FF0000A44F004040827AD
:1051A000009203E008224FF0000A0092C4F302527A
:1051B000022A05D059F804CB0021032A08D009E0BF
:1051C00009F1070121F00702F2E802C1914605E06A
:1051D0001FFA8CFC042A01D10CF0FF0C4FF00008E0
:1051E000220728D5702806D0009B83F0100353EACD
:1051F0000A0305D00EE040228DF80420012208E0C9
:105200005CEA010206D030228DF804208DF80500FA
:1052100002229046009B83F0080353EA0A030AD156
:105220005CEA010201D1620705D530228DF8042025
:105230004FF001087F1E582804D034A003900EA818
:1052400002900DE036A0F9E753466046009AFBF75E
:1052500043F884460398825C0298401E02900270D4
:105260005CEA0100F0D1029806A9081A00F1200AB0
:10527000600702D524F4803400E00127574502DDA1
:10528000A7EB0A0000E0002000EB0A01009005985F
:105290004144401A0590E00306D45B462146179A24
:1052A000059800F0B3F90544002706E001A85A4626
:1052B000C05D179990476D1C7F1C4745F6DBE003E6
:1052C0000CD55B462146179A059800F09FF90544D6
:1052D00004E030205A46179990476D1C0099481EEB
:1052E00000900029F5DC08E0029802995A460078FF
:1052F000491C0291179990476D1CBAF10001AAF15F
:10530000010AF1DC65E10000092801003031323387
:1053100034353637383961626364656600000000F1
:1053200030313233343536373839414243444546DB
:105330000000000000F058F90544761C3078002881
:105340007FF4ECAD19B02846BDE8F08F620700D4B9
:10535000062709F1070222F0070CFCE80223E146C8
:1053600003F000485FEA080C02D00FF2702C0DE049
:105370005FEA045C02D50FF2682C07E05FEAC47CA8
:1053800002D00FF2602C01E0AFF2700C4FF0FF384A
:1053900023F00043CDF850C065280CD006DC45282A
:1053A00009D046281DD047283DD13DE0662818D0B9
:1053B00067287ED138E00021112F01DB112000E0A9
:1053C000781CCDE9000106A90EA8FFF7AFF9DDE9C9
:1053D0000F010E9A03910021009207F1010A049136
:1053E0004DE04FF000400097CDE9011006A90EA84E
:1053F000FFF79CF9DDE90F0203920E9B1199002241
:10540000DDF80CA00093049211B9791C00EB010A9D
:10541000B7EB0A0004D4C0F1FF3007F1010A049091
:10542000AAEB0700019044E0012F00DA01270021D8
:10543000112F01DD112000E03846CDE9000106A959
:105440000EA8FFF773F9DDE90F010E9A0391002111
:1054500004910092BA4621070CD40399514500DA11
:105460008A46BAF1010F05DD009AAAF10101515CEB
:10547000302908D0B84202DA10F1040F06DA01210F
:10548000CDE9011015E0AAF10101E9E7002805DCEA
:10549000049901440491AAEB000102E0411C51452A
:1054A00000DD8A460499401A401C01904FF00040EC
:1054B0000290200704D40198504501DBCDF8048008
:1054C00000208DF84F0002980DF14F07B0F1004F0A
:1054D00025D02B200E9002984FF0020800280CDAFD
:1054E000404202902D200E9007E00A210298FAF720
:1054F00055FF3031029007F8011DB8F10001A8F105
:105500000108F2DC02980028EFD1791E0E9808708D
:10551000307800F0200040F0450007F8020D12A896
:10552000C01B00F107081498007800B1012000EBBF
:105530000A01019801EBE07105984144401A401EB0
:105540000590E00306D45B462146179A059800F0C3
:105550005DF805441498007818B15A461799904799
:105560006D1CE00324D55B462146179A059800F090
:105570004DF805441CE00498002807DBDDE9030131
:10558000884203DD0098405C179901E017993020AC
:105590005A469047049805F10105401C0490019873
:1055A000401E019004D12E205A46179990476D1C39
:1055B000BAF10001AAF1010ADDDC05E017F8010BE0
:1055C0005A46179990476D1CB8F10001A8F10108DF
:1055D000F4DC5B462146179A0598ABE62D000000E7
:1055E0002B000000200000002DE9F04104460025BA
:1055F0001E461746880404D405E039462020B047EB
:105600006D1C641EF9D52846BDE8F0812DE9F041F6
:10561000044600251E469046C80301D5302700E009
:105620002027880404D505E041463846B0476D1C64
:10563000641EF9D52846BDE8F08159B1C0F3C61300
:10564000C0F341525943C91D21F00700D040C01D8D
:10565000C008704700207047C0F3434102294FF053
:10566000400130B519D03B4A20F07E434D019C1AD1
:10567000934263D028DC384A9342A3EB02045DD006
:1056800018DC402B5BD0403BB3F5802350D0802BFF
:105690003DD0B3F5806F52D134E0C0F3C051C0F3B8
:1056A000C612C90500F07F0341EAC211194341F453
:1056B000802144E0A4F54074F93C26D00F2C3AD068
:1056C000AC423CD125493AE0254BE21A9C4229D014
:1056D0000CDC244AA21813D0B2F5F83F1FD0224B9D
:1056E000D2181AD0B2F5607F29D112E0A2F540722B
:1056F000F93A10D00F2A18D0AA4220D11B491EE037
:105700001B491CE01449C91F19E01A4917E01A493E
:1057100015E01A4913E01A4911E01A490FE0194936
:1057200080390CE01549C91D09E015490F3106E023
:105730001149803903E00F490F3100E0114600F0B4
:10574000804200F000530A43134300F00060184306
:1057500030BD00004004060047040400401004006F
:1057600007007E0000F483FF800FFEFF40108400DE
:105770004010820040080400C0000400400484007F
:1057800040088400C0008400002201460F4810B584
:1057900000F03EF910F0FF0F02D00DA100F0DEF88E
:1057A0000A4C00210C3CE06800F0A4F920610021C3
:1057B000E06800F0A9F9606122462169496811603A
:1057C000111D40680860002010BD0000C4050024C1
:1057D00061695F6E6574776F726B5F637265617428
:1057E000655F616E645F696E6974000070B5144630
:1057F0000D46064600F00CF840B17068C5EBC501D7
:1058000010EB810002D04460012070BD002070BD0B
:1058100028B1416819B1408808B1012070470020C3
:1058200070470000020010B52AD01068154BB3EB8A
:10583000C01F03D0144BB3EBC01F01D1012000E007
:10584000002008429069406802D01F3020F01F00FD
:105850005369D9B2012900D000211B0A07E00129B0
:1058600007D0946954F821406043491C1AB11C4682
:1058700002E00124F8E700248C42F0DC002800DC80
:10588000002010BD006000420060000209A108B5C0
:105890000968009148B101789DF80020914204D137
:1058A00004226946FAF76DFD08B1002008BD012009
:1058B00008BD0000038404842DE9F041066C002536
:1058C000816B0446C163CEB1D9B10120626CB0478F
:1058D0000CE00220626CB047E06BFEF791FE0746D9
:1058E000626C0320E16BB0476D1CE763E16B00293C
:1058F000EFD106E0FEF784FE6D1CE063E06B00284C
:10590000F8D12846BDE8F08103460020996B0029B4
:1059100008D00A69401CCB608A4203D0002A01D01B
:105920001146F6E770472DE9F041846B002594B1EC
:10593000012600272079C00707D0216A204611B12F
:105940008847304600E0384605442069A04202D02E
:1059500008B10446EEE72846BDE8F0814FEA102280
:1059600031B11346C0B2024609A0FEF757FC03E06E
:10597000C1B214A0FEF752FC1E4D4FF40054214654
:105980002846FBF7E5FD6420FBF7BAFCF7E70000CB
:1059900054454D504C415445202D204572726F7234
:1059A0002028257329202D20747970653D307825B5
:1059B00030327820636F64653D3078253032780D61
:1059C0000A00000054454D504C415445202D2045BF
:1059D00072726F72202D20747970653D3078253099
:1059E000327820636F64653D3078253032780D0A57
:1059F00000000000000802581CB500230522CDE974
:105A00000023024A012300F0F7F81CBD80030024A4
:105A10002DE9F0438FB016460F4605460021FFF7EB
:105A2000EBFF10F0FF0F80460AD1684600F034F813
:105A300018B100240DF10C090EE0286800F040F8C0
:105A40000FB0BDE8F08300BF57F824202146484638
:105A5000FFF7CCFE641CA4B21FB1BDF80E00A0423B
:105A6000F2D800246F4607E056F82420381D21465E
:105A7000FFF7BCFE641CA4B21EB1BDF80600A04234
:105A8000F2D82868694600F01DF818B9286800F0B7
:105A900017F880464046D3E71FB500280CD00749C9
:105AA000D1E90023CDE90023D1E90221CDE902218A
:105AB00002A96A4600F034F804B010BDFC67000883
:105AC00000F0E8B82DE9F0410D46064600F0F0F888
:105AD000041E0DD0294600F003FE07462946204645
